:100000000C9434000C9451000C9451000C94510049
:100010000C9451000C9451000C9451000C9451001C
:100020000C9451000C9451000C9451000C9451000C
:100030000C9451000C9451000C9451000C945100FC
:100040000C9451000C9451000C9451000C945100EC
:100050000C9450010C9451000C9451000C945100DC
:100060000C9451000C94510011241FBECFEFD8E026
:10007000DEBFCDBF11E0A0E0B1E0E4E9F4E002C0F2
:1000800005900D92A630B107D9F721E0A6E0B1E0C6
:1000900001C01D92AC36B207E1F70E94E9010C9451
:1000A00048020C9400005A9A83E08A95F1F7000008
:1000B0005A980895CF93DF931F92CDB7DEB766238A
:1000C00011F05E9A01C05E985F983B9A3A9A399A0D
:1000D000389A409841984298439887FD409A86FD07
:1000E000419A85FD429A84FD439A89830E94530078
:1000F0004098419842984398898183FD409A82FDB7
:10010000419A81FD429A80FD439A0E945300439A8E
:10011000429A419A409A0F90DF91CF9108955E984C
:100120005F9A3B983A98399838985A9A83E08A951A
:10013000F1F70000339B02C080E101C080E03299FA
:10014000806231998064309980685A9893E09A95DA
:10015000F1F700005A9A93E09A95F1F7000033996D
:1001600081603299826031998460309988605A98B0
:1001700008950E948F0087FDFCCF8DE08A95F1F7EE
:1001800000000C948F00CF93C82F0E94B90060E04C
:100190008C2FCF910C945A00CF93C82F0E94B90096
:1001A00061E08C2FCF910C945A00611102C08058ED
:1001B00001C080540C94C3000E94B90090E00895DF
:1001C00081E00C94C30082E00C94C300CF93C82F4D
:1001D0000E94B900CA3049F4803410F080E001C0B8
:1001E00080E48058CF910C94C30061E08C2FCF91B4
:1001F0000C945A00CF93DF93EC018991882319F076
:100200000E94E600FACFDF91CF910895CF93DF935C
:10021000FC018491EF012196882321F00E94E600E1
:10022000FE01F7CFDF91CF910895CF93C82F569A53
:10023000579A529A3B9A3A9A399A389A8FE39CE99C
:100240000197F1F700C00000429A439A0E945300C0
:1002500083ED90E30197F1F700C000000E94530086
:1002600095ED9A95F1F700000E94530085ED8A956F
:10027000F1F7000043980E94530095ED9A95F1F72D
:10028000000088E20E94C30088E00E94C3000E9430
:10029000E00086E00E94C3008C2FCF910C94C30035
:1002A0001F920F920FB60F9211248F93EF93FF932B
:1002B000E091060180916B01E81781F0F0E0E95FC1
:1002C000FE4F80818093C600809106018F5F843647
:1002D00018F48093060102C010920601FF91EF917D
:1002E0008F910F900FBE0F901F90189590916B01FA
:1002F000E92FF0E0E95FFE4F80839F5F943618F4AA
:1003000090936B01089510926B0108951F93CF9302
:10031000DF93EC0110E0212F30E0FE01019000207E
:10032000E9F73197EC1BFD0B2E173F0740F4FE0158
:10033000E20FF31F80810E9476011F5FECCF809156
:10034000C00085FD1092C600DF91CF911F910895E6
:100350001092C50080E48093C40088E48093C100BB
:1003600086E08093C2000895E0EBF0E08081806831
:1003700080838081806280838081826080838081AD
:1003800081608083E1EBF0E0808188608083808100
:10039000816080838FE48093B30087E28093B40010
:1003A000089580B710BE80B710BE80B7886080BF48
:1003B00080B710BE80B7826080BF80B7816080BF89
:1003C000EFE7F0E0808182608083808181608083BC
:1003D0000895EF92FF920F931F93CF93DF93CDB7C2
:1003E000DEB7C85ED3400FB6F894DEBF0FBECDBFF8
:1003F0003D98209A539A78940E94A8010E94B401D3
:100400008CE00E9415018E010F5F1F4F7E0127E1D6
:10041000E21A2CEFF20AF80180E391E3359B02C067
:10042000908301C0808323E52A95F1F7000031967F
:10043000EE15FF0599F7F80181918F01813319F4C9
:1004400080E091E007C0803319F482E091E002C0BF
:1004500084E091E00E948601FFE72AE186E0F15006
:1004600020408040E1F700C000000E151F0519F77D
:1004700080E090E0C851DC4F0FB6F894DEBF0FBEAD
:10048000CDBFDF91CF911F910F91FF90EF90089515
:04049000F894FFCF0E
:06049400310030003200CF
:00000001FF
