:100000000C9434000C9451000C9451000C94510049
:100010000C9451000C9451000C9451000C9451001C
:100020000C9451000C9451000C9451000C9451000C
:100030000C9451000C9451000C9451000C945100FC
:100040000C9451000C9451000C9451000C945100EC
:100050000C9450010C9451000C9451000C945100DC
:100060000C9451000C94510011241FBECFEFD8E026
:10007000DEBFCDBF11E0A0E0B1E0ECE2F6E002C0EF
:1000800005900D92A431B107D9F711E0A4E1B1E0D8
:1000900001C01D92AA37B107E1F70E9427020C9414
:1000A00014030C9400005A9A83E08A95F1F700003B
:1000B0005A980895CF93DF931F92CDB7DEB766238A
:1000C00011F05E9A01C05E985F983B9A3A9A399A0D
:1000D000389A409841984298439887FD409A86FD07
:1000E000419A85FD429A84FD439A89830E94530078
:1000F0004098419842984398898183FD409A82FDB7
:10010000419A81FD429A80FD439A0E945300439A8E
:10011000429A419A409A0F90DF91CF9108955E984C
:100120005F9A3B983A98399838985A9A83E08A951A
:10013000F1F70000339902C080E001C080E13299FC
:10014000806231998064309980685A9893E09A95DA
:10015000F1F700005A9A93E09A95F1F7000033996D
:1001600081603299826031998460309988605A98B0
:1001700008950E948F0087FDFCCF8DE08A95F1F7EE
:1001800000000C948F00CF93C82F0E94B90060E04C
:100190008C2FCF910C945A00CF93C82F0E94B90096
:1001A00061E08C2FCF910C945A00611102C08058ED
:1001B00001C080540C94C3000E94B90090E00895DF
:1001C00081E00C94C30082E00C94C300CF93C82F4D
:1001D0000E94B900CA3049F4803410F480E401C0B0
:1001E00080E08058CF910C94C30061E08C2FCF91B8
:1001F0000C945A00CF93DF93EC018991882319F076
:100200000E94E600FACFDF91CF910895CF93DF935C
:10021000FC018491EF012196882321F00E94E600E1
:10022000FE01F7CFDF91CF910895CF93C82F569A53
:10023000579A529A3B9A3A9A399A389A8FE39CE99C
:100240000197F1F700C00000429A439A0E945300C0
:1002500083ED90E30197F1F700C000000E94530086
:1002600095ED9A95F1F700000E94530085ED8A956F
:10027000F1F7000043980E94530095ED9A95F1F72D
:10028000000088E20E94C30088E00E94C3000E9430
:10029000E00086E00E94C3008C2FCF910C94C30035
:1002A0001F920F920FB60F9211248F93EF93FF932B
:1002B000E091140180917901E81779F0F0E0EB5EAC
:1002C000FE4F80818093C600809114018F5F8093E0
:1002D0001401843610F010921401FF91EF918F9168
:1002E0000F900FBE0F901F90189590917901E92FF4
:1002F000F0E0EB5EFE4F80839F5F943618F490939E
:10030000790108951092790108951F93CF93DF9397
:10031000EC0110E0812F90E0FE0101900020E9F750
:100320003197EC1BFD0B8E179F0740F4FE01E80F81
:10033000F91F80810E9475011F5FECCF8091C00082
:1003400085FD1092C600DF91CF911F910895109204
:10035000C50080E48093C40088E48093C10086E0F7
:100360008093C2000895E0EBF0E080818068808394
:1003700080818062808380818260808380818160CF
:100380008083E1EBF0E08081886080838081816000
:1003900080838FE48093B30087E28093B400089554
:1003A000E0E8F0E0808180688083808180628083E3
:1003B000808182608083808181608083E1E8F0E0D9
:1003C00080818860808380818260808384E690E081
:1003D00090938B0080938A000895E0E8F0E080819C
:1003E0008068808380818062808380818260808356
:1003F000808181608083E1E8F0E080818860808393
:1004000080818360808384E690E090938B0080936A
:100410008A000895E1E8F0E080811082089580B7B5
:1004200010BE80B710BE80B7886080BF80B710BE96
:1004300080B7826080BF80B7816080BFEFE7F0E067
:100440008081826080838081816080830895CF92E3
:10045000DF92EF92FF920F931F93CF93DF93CDB76D
:10046000DEB7CF5CD7400FB6F894DEBF0FBECDBF6E
:100470003D98209A539A229A78940E94A7010E944C
:10048000B3018CE00E94150180E091E00E94FA0027
:10049000AE0143525A4FFE01319680E391E3359B02
:1004A00002C0908301C0808326EA2A95F1F700C03C
:1004B0003196E417F50799F721E08981813309F036
:1004C00020E0FE01319680E090E0619131E06133FF
:1004D00009F030E0231307C001968C3D35E0930707
:1004E000A1F780E090E0E1E0F0E0EC0FFD1FE80F05
:1004F000F91FF080FC0160E070E020E030E0ACED3E
:10050000CA2EA5E0DA2EC81AD90AEC15FD055CF54D
:1005100001E010E00C0F1D1F0E0F1F1FD801EC9003
:10052000EF1003C06F5F7F4F1BC08B010350110999
:100530000530110560F0685071096430710598F458
:10054000BA01620F731FDB01FC922F5F3F4FBA01AC
:10055000620F731FDB01FC922F5F3F4F61E070E081
:100560003196FE2CD2CFFA01619121E030E07191F9
:10057000671731F02F5F3F4F25393105C1F701C0B3
:10058000C901FE01E55CF84F62E385399105ACF4E1
:10059000DA01A80FB91F2C9111963C91213319F45F
:1005A000303339F404C0203321F4313311F4208383
:1005B00001C0608302963196E8CF7E01B0E3EB1A6A
:1005C000B8EFFB0A8E01055C184FF80181918F018D
:1005D000813319F48EE091E007C0803319F480E193
:1005E00091E002C082E191E00E948501FFE72AE1EB
:1005F00036E0F15020403040E1F700C000000E1519
:100600001F0519F780E090E0C153D84F0FB6F8945A
:10061000DEBF0FBECDBFDF91CF911F910F91FF9035
:0C062000EF90DF90CF900895F894FFCF8A
:10062C005246494420546167204865726500310088
:04063C003000320058
:00000001FF
