:100000000C9434000C9451000C9451000C94510049
:100010000C9451000C9451000C9451000C9451001C
:100020000C9451000C9451000C9451000C9451000C
:100030000C9451000C9451000C9451000C945100FC
:100040000C9451000C9451000C9451000C94DE015E
:100050000C9451000C9451000C9451000C945100DC
:100060000C9451000C94510011241FBECFEFD8E026
:10007000DEBFCDBF11E0A0E0B1E0ECECF6E002C0E5
:1000800005900D92AA30B107D9F721E0AAE0B1E0BE
:1000900001C01D92AC37B207E1F70E9439020C94FF
:1000A00064030C9400005A9A83E08A95F1F70000EB
:1000B0005A980895CF93DF931F92CDB7DEB766238A
:1000C00011F05E9A01C05E985F983B9A3A9A399A0D
:1000D000389A409841984298439887FD409A86FD07
:1000E000419A85FD429A84FD439A89830E94530078
:1000F0004098419842984398898183FD409A82FDB7
:10010000419A81FD429A80FD439A0E945300439A8E
:10011000429A419A409A0F90DF91CF9108955E984C
:100120005F9A3B983A98399838985A9A83E08A951A
:10013000F1F70000339B02C080E101C080E03299FA
:10014000806231998064309980685A9893E09A95DA
:10015000F1F700005A9A93E09A95F1F7000033996D
:1001600081603299826031998460309988605A98B0
:1001700008950E948F0087FDFCCF8DE08A95F1F7EE
:1001800000000C948F00CF93C82F0E94B90060E04C
:100190008C2FCF910C945A00CF93C82F0E94B90096
:1001A00061E08C2FCF910C945A00611102C08058ED
:1001B00001C080540C94C3000E94B90090E00895DF
:1001C00081E00C94C30082E00C94C300CF93C82F4D
:1001D0000E94B900CA3049F4803410F080E001C0B8
:1001E00080E48058CF910C94C30061E08C2FCF91B4
:1001F0000C945A00CF93DF93EC018991882319F076
:100200000E94E600FACFDF91CF910895CF93DF935C
:10021000FC018491EF012196882321F00E94E600E1
:10022000FE01F7CFDF91CF910895CF93C82F569A53
:10023000579A529A3B9A3A9A399A389A8FE39CE99C
:100240000197F1F700C00000429A439A0E945300C0
:1002500083ED90E30197F1F700C000000E94530086
:1002600095ED9A95F1F700000E94530085ED8A956F
:10027000F1F7000043980E94530095ED9A95F1F72D
:10028000000088E20E94C30088E00E94C3000E9430
:10029000E00086E00E94C3008C2FCF910C94C30035
:1002A00090917B01E92FF0E0E95EFE4F80839F5F34
:1002B000943618F490937B01089510927B01089571
:1002C0001F93CF93DF93EC0110E0212F30E0FE016C
:1002D00001900020E9F73197EC1BFD0B2E173F072B
:1002E00040F4FE01E20FF31F80810E9450011F5F66
:1002F000ECCF8091C00085FD1092C600DF91CF91B8
:100300001F910895E0EBF0E0808180688083808118
:10031000806280838081826080838081816080832D
:10032000E1EBF0E080818860808380818160808360
:100330008FE48093B30087E28093B4000895E0E8EF
:10034000F0E080818068808380818062808380810A
:1003500082608083808181608083E1E8F0E0808139
:100360008860808380818260808384E690E09093BF
:100370008B0080938A000895E0E8F0E08081806837
:10038000808380818062808380818260808380819D
:1003900081608083E1E8F0E08081886080838081F3
:1003A0008360808384E690E090938B0080938A0042
:1003B0000895E1E8F0E08081108208951F920F9285
:1003C0000FB60F9211248F939F93EF93FF93909109
:1003D0000B0180910A01981769F0E0910A01EF5F23
:1003E000E770E0930A01F0E0E45FFE4F80818093C4
:1003F000C60005C08091C1008F7D8093C100FF9130
:10040000EF919F918F910F900FBE0F901F901895B5
:100410001092C5008093C40088E98093C1001092B7
:1004200014011092150110920A0110920B01089507
:1004300090910B019F5F977020910A019217E1F351
:10044000E92FF0E0E45FFE4F808390930B018091F1
:10045000C10080628093C1000895CF93DF93EC01C7
:100460008991882319F00E941802FACFDF91CF9169
:100470000895CF92DF92EF92FF920F931F93CF9345
:10048000DF93CDB7DEB7C456D8400FB6F894DEBFC1
:100490000FBECDBF3D98209A539A229A789480E45B
:1004A0000E9408020E9482018CE00E94150180E0F7
:1004B00091E00E94FA008E010F5F1F4FCE01835220
:1004C0009A4FF80120E331E3359B02C0308301C02D
:1004D000208346EA4A95F1F700C03196E817F907FC
:1004E00099F721E03981313309F020E0F801A0E0EB
:1004F000B0E0419131E0413309F030E0231307C00F
:100500001196AC3D65E0B607A1F7A0E0B0E0F801B8
:10051000EA0FFB1FF08040E050E020E030E06CED9F
:1005200075E06A1B7B0BDF01A01BB10BA617B70799
:100530002CF5E190EF1003C04F5F5F4F1DC06A01C3
:10054000A3E0CA1AD108B5E0CB16D10460F0485038
:1005500051094430510590F4AC01420F531FDA01A8
:10056000FC922F5F3F4FAC01420F531FDA01FC9208
:100570002F5F3F4F41E050E0FE2CD5CFFC01519161
:100580009F01281B390B40815413F9CFFE01E05322
:10059000F84F7F0111E3BC01620F731FDB015C9117
:1005A00011964C91503359F4403331F4DF0120E07F
:1005B00030E080E090E011C0D7015C9304C040338C
:1005C000A9F7D7011C932E5F3F4FBFEFEB1AFB0A31
:1005D0002E3541E03407FCF2E9CF4D91413331F43F
:1005E0004C91413319F42F5F3F4F02C020E030E0BF
:1005F00001968339910529F02830310571F701966C
:1006000002C080E090E06E0165ECC61A68EFD60A81
:1006100021E030E0A60170E311E028333105A9F0B4
:100620007F01E80EF91ED7016C91613321F46083DC
:10063000D6011C9303C07083D6011C922F5F3F4FDD
:100640003196BFEFCB1ADB0AE8CFFA013D96415C49
:100650005F4F2081022E000C330BDF0114976C9149
:1006600011968C91082E000C990B860F911D67FD39
:100670009A9511966C91860F911D67FD9A9511962A
:100680006C91860F911D67FD9A9580FD04C0213005
:10069000310519F407C0232B29F03596E417F50727
:1006A000C1F6289A80E090E0CC59D74F0FB6F89465
:1006B000DEBF0FBECDBFDF91CF911F910F91FF9095
:0C06C000EF90DF90CF900895F894FFCFEA
:0A06CC0052464944205461670000C3
:00000001FF
