:100000000C9434000C943E000C943E000C943E0082
:100010000C943E000C943E000C943E000C943E0068
:100020000C943E000C943E000C943E000C943E0058
:100030000C943E000C943E000C943E000C943E0048
:100040000C943E000C943E000C943E000C943E0038
:100050000C943E000C943E000C943E000C943E0028
:100060000C943E000C943E0011241FBECFEFD8E04C
:10007000DEBFCDBF0E9464010C9477010C94000098
:100080005A9A00005A980895CF93DF931F92CDB7E4
:10009000DEB7662311F0589A01C0589859983B9AD8
:1000A0003A9A399A389A409841984298439887FDED
:1000B000409A86FD419A85FD429A84FD439A898340
:1000C0000E9440004098419842984398898183FD5E
:1000D000409A82FD419A81FD429A80FD439A0E9496
:1000E0004000439A429A419A409A0F90DF91CF91F3
:1000F00008955898599A3B983A98399838985A9A46
:100100000000339902C080E001C080E13299806232
:1001100031998064309980685A9800005A9A00009A
:100120003399816032998260319984603099886016
:100130005A9808950E94790087FDFCCF00C000C046
:100140000C947900CF93C82F0E949A0060E08C2F06
:10015000CF910C944400CF93C82F0E949A0061E085
:100160008C2FCF910C944400611102C0805801C0C3
:1001700080540C94A2000E949A0090E0089581E0BF
:100180000C94A20082E00C94A200CF93C82F0E948E
:100190009A00CA3049F4803410F480E401C080E051
:1001A0008058CF910C94A20061E08C2FCF910C94D9
:1001B0004400CF93DF93EC018991882319F00E94CA
:1001C000C500FACFDF91CF910895CF93DF93FC0163
:1001D0008491EF012196882321F00E94C500FE0141
:1001E000F7CFDF91CF910895CF93C82F509A519AAE
:1001F000529A3B9A3A9A399A389A8FE99FE0019736
:10020000F1F700C00000429A439A0E94400081EE3C
:1002100094E00197F1F700C000000E94400095E1D2
:100220009A95F1F700000E94400085E18A95F1F768
:10023000000043980E94400095E19A95F1F7000074
:1002400088E20E94A20088E00E94A2000E94BF00F3
:1002500086E00E94A2008C2FCF910C94A200E0EBCC
:10026000F0E08081806880838081806280838081EB
:1002700082608083808181608083E1EBF0E0808117
:10028000886080838081816080838FE48093B30065
:1002900087E28093B400089580B710BE80B710BE87
:1002A00080B7886080BF80B710BE80B7826080BF93
:1002B00080B7816080BFEFE7F0E08081826080835B
:1002C0008081816080830895209A539A8FB78068D7
:1002D0008FBF91E085B1892785B92FE734E88EE19A
:1002E000215030408040E1F700C00000F3CFF89487
:0202F000FFCF3E
:00000001FF
