:100000000C9434000C9451000C9451000C94510049
:100010000C9451000C9451000C9451000C9451001C
:100020000C9451000C9451000C9451000C9451000C
:100030000C9451000C9451000C9451000C945100FC
:100040000C9451000C9451000C9451000C94E50157
:100050000C9451000C9451000C9451000C945100DC
:100060000C9451000C94510011241FBECFEFD8E026
:10007000DEBFCDBF11E0A0E0B1E0E8E9FAE002C0E8
:1000800005900D92AA30B107D9F721E0AAE0B1E0BE
:1000900001C01D92AC37B207E1F70E9440020C94F8
:1000A0004A050C9400005A9A83E08A95F1F7000003
:1000B0005A980895CF93DF931F92CDB7DEB766238A
:1000C00011F05E9A01C05E985F983B9A3A9A399A0D
:1000D000389A409841984298439887FD409A86FD07
:1000E000419A85FD429A84FD439A89830E94530078
:1000F0004098419842984398898183FD409A82FDB7
:10010000419A81FD429A80FD439A0E945300439A8E
:10011000429A419A409A0F90DF91CF9108955E984C
:100120005F9A3B983A98399838985A9A83E08A951A
:10013000F1F70000339B02C080E101C080E03299FA
:10014000806231998064309980685A9893E09A95DA
:10015000F1F700005A9A93E09A95F1F7000033996D
:1001600081603299826031998460309988605A98B0
:1001700008950E948F0087FDFCCF8DE08A95F1F7EE
:1001800000000C948F00CF93C82F0E94B90060E04C
:100190008C2FCF910C945A00CF93C82F0E94B90096
:1001A00061E08C2FCF910C945A00611102C08058ED
:1001B00001C080540C94C3000E94B90090E00895DF
:1001C00081E00C94C30082E00C94C300CF93C82F4D
:1001D0000E94B900CA3049F4803410F080E001C0B8
:1001E00080E48058CF910C94C30061E08C2FCF91B4
:1001F0000C945A00CF93DF93EC018991882319F076
:100200000E94E600FACFDF91CF910895CF93DF935C
:10021000FC018491EF012196882321F00E94E600E1
:10022000FE01F7CFDF91CF910895CF93C82F569A53
:10023000579A529A3B9A3A9A399A389A8FE39CE99C
:100240000197F1F700C00000429A439A0E945300C0
:1002500083ED90E30197F1F700C000000E94530086
:1002600095ED9A95F1F700000E94530085ED8A956F
:10027000F1F7000043980E94530095ED9A95F1F72D
:10028000000088E20E94C30088E00E94C3000E9430
:10029000E00086E00E94C3008C2FCF910C94C30035
:1002A00085B115B80895289A0895299A08959091CE
:1002B0007B01E92FF0E0E95EFE4F80839F5F94367B
:1002C00018F490937B01089510927B0108951F9379
:1002D000CF93DF93EC0110E0212F30E0FE0101907D
:1002E0000020E9F73197EC1BFD0B2E173F0740F478
:1002F000FE01E20FF31F80810E9457011F5FECCFC8
:100300008091C00085FD1092C600DF91CF911F91B2
:100310000895E0EBF0E080818068808380818062D6
:100320008083808182608083808181608083E1EB33
:10033000F0E08081886080838081816080838FE4A9
:100340008093B30087E28093B4000895E0E8F0E082
:1003500080818068808380818062808380818260E8
:100360008083808181608083E1E8F0E08081886023
:10037000808380818260808384E690E090938B000C
:1003800080938A000895E0E8F0E0808180688083AF
:1003900080818062808380818260808380818160AF
:1003A0008083E1E8F0E080818860808380818360E1
:1003B000808384E690E090938B0080938A00089578
:1003C000E1E8F0E08081108208951F920F920FB64D
:1003D0000F9211248F939F93EF93FF9390910B01B2
:1003E00080910A01981769F0E0910A01EF5FE770C8
:1003F000E0930A01F0E0E45FFE4F80818093C60045
:1004000005C08091C1008F7D8093C100FF91EF9165
:100410009F918F910F900FBE0F901F901895109283
:10042000C5008093C40088E98093C1001092140134
:100430001092150110920A0110920B0108959091EB
:100440000B019F5F977020910A019217E1F3E92F4A
:10045000F0E0E45FFE4F808390930B018091C10038
:1004600080628093C1000895CF93DF93EC0189915E
:10047000882319F00E941F02FACFDF91CF910895CF
:10048000CF93DF93CDB7DEB7C95DD7400FB6F894F1
:10049000DEBF0FBECDBF3D98209A219A539A229A73
:1004A000789480E40E940F020E9489018CE00E94EF
:1004B000150180E091E00E94FA009E012F5F3F4FFE
:1004C00069017E0133E2E31A3AEFF30A8CED882EDC
:1004D00085E0982E9BE3692E97E0792E6C0E7D1EA9
:1004E00084E0680E711CF60180E391E3359B02C045
:1004F000908301C08083A6EAAA95F1F700C03196E7
:10050000EE15FF0599F781E09981913309F080E0BC
:10051000F60160E070E0219191E0213309F090E074
:10052000891308C06F5F7F4F6C3DB5E07B0799F77B
:1005300060E070E0F601E60FF71F808140E050E0D8
:1005400020E030E0D401A61BB70BBD01DF01AC19E0
:10055000BD09A617B707FCF49191981303C04F5F2C
:100560005F4F17C0DA011397159758F0485051099B
:100570004430510580F4D701A20FB31F8C932F5F35
:100580003F4FD701A20FB31F8C932F5F3F4F41E026
:1005900050E0892FDBCFF7013191CF018E199F09F0
:1005A00020813213F9CFFE01E55CF84F5F0141E392
:1005B000D701A80FB91F3C9111962C91303361F4EB
:1005C000203341F4FE01E55CF84F80E090E020E04C
:1005D00030E00CC0308303C02033A1F74083029683
:1005E00031968E3521E092071CF3ECCF41914133D7
:1005F00029F44081413311F4019602C080E090E07B
:100600002F5F3F4F2339310531F08830910571F765
:100610002F5F3F4F02C020E030E0FE01E55CF84F65
:1006200081E090E050E38833910561F0DF01A20F93
:10063000B31F4C91413311F4408301C050830196A4
:100640003196F1CFF3014BE357E04C0F5D1F4A5C4D
:100650005F4F31E020E0DF0114978C91813309F086
:1006600030E0832F922FDF0113972C91213309F46F
:100670000196DF0112972C91213309F40196DF01D5
:1006800011972C91213309F4019621E03081313307
:1006900009F020E080FD02C0211194C18D7F0197F7
:1006A00019F4222309F48EC13596E417F50789F66B
:1006B000CB5BD84F8881C554D740C55CD84F888361
:1006C000CB53D740CA5BD84F8881C654D740C45C4F
:1006D000D84F8883CC53D740C95BD84F8881C75443
:1006E000D740C35CD84F8883CD53D740C85BD84F21
:1006F0008881C854D740C25CD84F8883CE53D74036
:10070000C65BD84F8881CA54D740C15CD84F888314
:10071000CF53D740C55BD84F8881CB54D740C05CFE
:10072000D84F8883C054D740C45BD84F8881CC54FD
:10073000D740CF5BD84F8883C154D740C35BD84FD5
:100740008881CD54D740CE5BD84F8883C254D740E0
:10075000C15BD84F8881CF54D740CD5BD84F8883B9
:10076000C354D740C05BD84F8881C055D740CC5BBD
:10077000D84F8883C454D740CF5AD84F8881C155A9
:10078000D740CB5BD84F8883C554D740CE5AD84F7B
:100790008881C255D740CA5BD84F8883C654D7409A
:1007A000CC5AD84F8881C455D740C95BD84F88836D
:1007B000C754D740CB5AD84F8881C555D740C85B5E
:1007C000D84F8883C854D740CA5AD84F8881C65555
:1007D000D740C75BD84F8883C954D740C95AD84F30
:1007E0008881C755D740C65BD84F8883CA54D74045
:1007F000C75AD84F8881C955D740C55BD84F888321
:10080000CB54D740C65AD84F8881CA55D740C45B0D
:10081000D84F8883CC54D740C55AD84F8881CB5500
:10082000D740C35BD84F8883CD54D740C45AD84FE4
:100830008881CC55D740C25BD84F8883CE54D740EF
:10084000C25AD84F8881CE55D740C15BD84F8883D4
:10085000CF54D740C15AD84F8881CF55D740C05BBD
:10086000D84F8883C055D740C05AD84F8881C056CA
:10087000D740CF5AD84F8883C155D740CF59D84F8A
:100880008881C156D740CE5AD84F8883C255D740A9
:10089000CD59D84F8881C356D740CD5AD84F888379
:1008A000C355D740CC59D84F8881C456D740CC5A6D
:1008B000D84F8883C455D740CB59D84F8881C55667
:1008C000D740CB5AD84F8883C555D740CA59D84F3F
:1008D0008881C656D740CA5AD84F8883C655D74054
:1008E000C859D84F8881C856D740C95AD84F88832D
:1008F000C755D740C759D84F8881C956D740C85A1D
:10090000D84F8883C855D740C659D84F8881CA5612
:10091000D740C75AD84F8883C955D740C559D84FF3
:100920008881CB56D740C65AD84F8883CA55D740FE
:10093000C55AD84F1882CB55D740DE01A55CB84FB9
:10094000E0E030E010E0F0E060E070E080E090E0B7
:100950002D91222381F0213309F4E1602C9122238F
:10096000B9F32E2F412F5F2F01E00E94F004E22FF8
:10097000142FF52FEDCF2AE0AE014053584F6E2FC4
:10098000732F812F9F2F0E9409050BE317E00C0F97
:100990001D1F005E1F4FD5018D915D010E941F023A
:1009A000E7EAF1E63197F1F700C00000A016B106C2
:1009B00091F781E00E94C300CE018053984F0E94BE
:1009C000FA0091CD0E94C301FFE121EA37E0F15026
:1009D00020403040E1F700C000000E94E00183CDDC
:1009E0000F93083090F0982F872F762F652F542F74
:1009F000432F322F22270850F4CF220F331F441FDA
:100A0000551F661F771F881F991F0A95B2F70F9110
:100A10000895BB272A3051F4992342F4BDE2909502
:100A20008095709561957F4F8F4F9F4F0C9419055E
:100A3000BB27FA01A62F6217710581059105330BBB
:100A400030FB66F0AA27660F771F881F991FAA1F21
:100A5000A21710F0A21B63953850A9F7A05DAA3326
:100A600008F0A95DA19336F7B111B1931082CA01C4
:100A70000C943A05DC01FC01672F71917723E1F7B3
:100A8000329704C07C916D9370836291AE17BF075B
:080A9000C8F30895F894FFCFAC
:0A0A980052464944205461670000F3
:00000001FF
