:100000000C9434000C9451000C9451000C94510049
:100010000C9451000C9451000C9451000C9451001C
:100020000C9451000C9451000C9451000C9451000C
:100030000C9451000C9451000C9451000C945100FC
:100040000C9451000C9451000C9451000C94E50157
:100050000C9451000C9451000C9451000C945100DC
:100060000C9451000C94510011241FBECFEFD8E026
:10007000DEBFCDBF11E0A0E0B1E0E4E0F7E002C0F8
:1000800005900D92AA30B107D9F721E0AAE0B1E0BE
:1000900001C01D92AC37B207E1F70E9440020C94F8
:1000A00080030C9400005A9A83E08A95F1F70000CF
:1000B0005A980895CF93DF931F92CDB7DEB766238A
:1000C00011F05E9A01C05E985F983B9A3A9A399A0D
:1000D000389A409841984298439887FD409A86FD07
:1000E000419A85FD429A84FD439A89830E94530078
:1000F0004098419842984398898183FD409A82FDB7
:10010000419A81FD429A80FD439A0E945300439A8E
:10011000429A419A409A0F90DF91CF9108955E984C
:100120005F9A3B983A98399838985A9A83E08A951A
:10013000F1F70000339B02C080E101C080E03299FA
:10014000806231998064309980685A9893E09A95DA
:10015000F1F700005A9A93E09A95F1F7000033996D
:1001600081603299826031998460309988605A98B0
:1001700008950E948F0087FDFCCF8DE08A95F1F7EE
:1001800000000C948F00CF93C82F0E94B90060E04C
:100190008C2FCF910C945A00CF93C82F0E94B90096
:1001A00061E08C2FCF910C945A00611102C08058ED
:1001B00001C080540C94C3000E94B90090E00895DF
:1001C00081E00C94C30082E00C94C300CF93C82F4D
:1001D0000E94B900CA3049F4803410F080E001C0B8
:1001E00080E48058CF910C94C30061E08C2FCF91B4
:1001F0000C945A00CF93DF93EC018991882319F076
:100200000E94E600FACFDF91CF910895CF93DF935C
:10021000FC018491EF012196882321F00E94E600E1
:10022000FE01F7CFDF91CF910895CF93C82F569A53
:10023000579A529A3B9A3A9A399A389A8FE39CE99C
:100240000197F1F700C00000429A439A0E945300C0
:1002500083ED90E30197F1F700C000000E94530086
:1002600095ED9A95F1F700000E94530085ED8A956F
:10027000F1F7000043980E94530095ED9A95F1F72D
:10028000000088E20E94C30088E00E94C3000E9430
:10029000E00086E00E94C3008C2FCF910C94C30035
:1002A00085B115B80895289A0895299A08959091CE
:1002B0007B01E92FF0E0E95EFE4F80839F5F94367B
:1002C00018F490937B01089510927B0108951F9379
:1002D000CF93DF93EC0110E0212F30E0FE0101907D
:1002E0000020E9F73197EC1BFD0B2E173F0740F478
:1002F000FE01E20FF31F80810E9457011F5FECCFC8
:100300008091C00085FD1092C600DF91CF911F91B2
:100310000895E0EBF0E080818068808380818062D6
:100320008083808182608083808181608083E1EB33
:10033000F0E08081886080838081816080838FE4A9
:100340008093B30087E28093B4000895E0E8F0E082
:1003500080818068808380818062808380818260E8
:100360008083808181608083E1E8F0E08081886023
:10037000808380818260808384E690E090938B000C
:1003800080938A000895E0E8F0E0808180688083AF
:1003900080818062808380818260808380818160AF
:1003A0008083E1E8F0E080818860808380818360E1
:1003B000808384E690E090938B0080938A00089578
:1003C000E1E8F0E08081108208951F920F920FB64D
:1003D0000F9211248F939F93EF93FF9390910B01B2
:1003E00080910A01981769F0E0910A01EF5FE770C8
:1003F000E0930A01F0E0E45FFE4F80818093C60045
:1004000005C08091C1008F7D8093C100FF91EF9165
:100410009F918F910F900FBE0F901F901895109283
:10042000C5008093C40088E98093C1001092140134
:100430001092150110920A0110920B0108959091EB
:100440000B019F5F977020910A019217E1F3E92F4A
:10045000F0E0E45FFE4F808390930B018091C10038
:1004600080628093C1000895CF93DF93EC0189915E
:10047000882319F00E941F02FACFDF91CF910895CF
:10048000CF92DF92EF92FF920F931F93CF93DF9360
:10049000CDB7DEB7CF5CD7400FB6F894DEBF0FBE46
:1004A000CDBF3D98209A219A539A229A789480E45D
:1004B0000E940F020E9489018FE00E94150180E0D6
:1004C00091E00E94FA008E010F5F1F4FCE01835210
:1004D0009A4FF80120E331E3359B02C0308301C01D
:1004E000208346EA4A95F1F700C03196E817F907EC
:1004F00099F721E03981313309F020E0F801A0E0DB
:10050000B0E0419131E0413309F030E0231307C0FE
:100510001196AC3D35E0B307A1F7A0E0B0E0F801DB
:10052000EA0FFB1FF08040E050E020E030E06CED8F
:1005300075E06A1B7B0BDF01A01BB10BA617B70789
:100540002CF5E190EF1003C04F5F5F4F1DC06A01B3
:10055000A3E0CA1AD108B5E0CB16D10460F0485028
:1005600051094430510590F4AC01420F531FDA0198
:10057000FC922F5F3F4FAC01420F531FDA01FC92F8
:100580002F5F3F4F41E050E0FE2CD5CFFC01519151
:100590009F01281B390B40815413F9CF8E01055C54
:1005A000184FF80161E3DC01A20FB31F5C911196B3
:1005B0004C91503351F4403331F4F80120E030E0F5
:1005C00080E090E00DC0508303C04033B1F76083FA
:1005D0002E5F3F4F31962E35B1E03B0724F3EDCF30
:1005E0004191413331F44081413319F42F5F3F4F42
:1005F00002C020E030E001968339910529F02830CF
:10060000310571F7019602C080E090E0F80121E029
:1006100030E050E32833310569F0DF01A80FB91F3E
:100620004C91413311F4408301C050832F5F3F4F01
:100630003196F0CFF801828580838385818384851C
:100640008283858583838785848380898583818967
:100650008683828987838489808785898187868943
:10066000828787898387818D8487828D8587838D23
:100670008687848D8787868D808B878D818B80A1EF
:10068000828B81A1838B83A1848B84A1858B85A19F
:10069000868B86A1878B80A5808F81A5818F82A57F
:1006A000828F83A5838F85A5848F86A5858F87A557
:1006B000868F80A9878F10A27801F0E2EF0EF11CDF
:1006C000D8018D918D010E941F02E7EAF1E6319772
:1006D000F1F700C000000E151F0591F780E090E0D3
:1006E000C153D84F0FB6F894DEBF0FBECDBFDF9118
:1006F000CF911F910F91FF90EF90DF90CF900895D1
:04070000F894FFCF9B
:0A070400524649442054616700008A
:00000001FF
