:100000000C9434000C9446000C9446000C9446006A
:100010000C9446000C9446000C9446000C94460048
:100020000C9446000C9446000C9446000C94460038
:100030000C9446000C9446000C9446000C94460028
:100040000C9446000C9446000C9446000C94460018
:100050000C9445010C9446000C9446000C94460008
:100060000C9446000C94460011241FBECFEFD8E03C
:10007000DEBFCDBF21E0A0E0B1E001C01D92A636F9
:10008000B207E1F70E94DE010C9420020C940000FC
:100090005A9A83E08A95F1F700005A980895CF9311
:1000A000DF931F92CDB7DEB7662311F05E9A01C0D1
:1000B0005E985F983B9A3A9A399A389A4098419854
:1000C0004298439887FD409A86FD419A85FD429A61
:1000D00084FD439A89830E94480040984198429841
:1000E0004398898183FD409A82FD419A81FD429A1D
:1000F00080FD439A0E944800439A429A419A409A4E
:100100000F90DF91CF9108955E985F9A3B983A984F
:10011000399838985A9A83E08A95F1F70000339B12
:1001200002C080E101C080E0329980623199806430
:10013000309980685A9893E09A95F1F700005A9A9E
:1001400093E09A95F1F700003399816032998260CB
:1001500031998460309988605A9808950E9484008B
:1001600087FDFCCF8DE08A95F1F700000C948400A8
:10017000CF93C82F0E94AE0060E08C2FCF910C94DB
:100180004F00CF93C82F0E94AE0061E08C2FCF911B
:100190000C944F00611102C0805801C080540C942F
:1001A000B8000E94AE0090E0089581E00C94B80081
:1001B00082E00C94B800CF93C82F0E94AE00CA30E2
:1001C00049F4803410F080E001C080E48058CF9181
:1001D0000C94B80061E08C2FCF910C944F00CF931A
:1001E000DF93EC018991882319F00E94DB00FACF9C
:1001F000DF91CF910895CF93DF93FC018491EF01BC
:100200002196882321F00E94DB00FE01F7CFDF91C9
:10021000CF910895CF93C82F569A579A529A3B9AE6
:100220003A9A399A389A8FE39CE90197F1F700C01E
:100230000000429A439A0E94480083ED90E30197A0
:10024000F1F700C000000E94480095ED9A95F1F783
:1002500000000E94480085ED8A95F1F70000439860
:100260000E94480095ED9A95F1F7000088E20E94FF
:10027000B80088E00E94B8000E94D50086E00E9485
:10028000B8008C2FCF910C94B8001F920F920FB62C
:100290000F9211248F93EF93FF93E09100018091CF
:1002A0006501E81781F0F0E0EF5FFE4F80818093F9
:1002B000C600809100018F5F843618F4809300019E
:1002C00002C010920001FF91EF918F910F900FBE2D
:1002D0000F901F90189590916501E92FF0E0EF5F66
:1002E000FE4F80839F5F943618F4909365010895C4
:1002F0001092650108951F93CF93DF93EC0110E0F6
:10030000212F30E0FE0101900020E9F73197EC1B2E
:10031000FD0B2E173F0740F4FE01E20FF31F808113
:100320000E946B011F5FECCF8091C00085FD109291
:10033000C600DF91CF911F9108951092C50080E40F
:100340008093C40088E48093C10086E08093C2005B
:100350000895E0EBF0E08081806880838081806296
:100360008083808182608083808181608083E1EBF3
:10037000F0E08081886080838081816080838FE469
:100380008093B30087E28093B400089580B710BED5
:1003900080B710BE80B7886080BF80B710BE80B7BE
:1003A000826080BF80B7816080BFEFE7F0E080812E
:1003B000826080838081816080830895CF93DF9302
:1003C000CDB7DEB7C85ED3400FB6F894DEBF0FBE20
:1003D000CDBF3D98209A539A78940E949D010E9427
:1003E000A9018CE00E940A01FE013196CE018751DD
:1003F0009C4F22E330E3359902C0308301C0208353
:1004000046EA4A95F1F700C03196E817F90799F7DF
:1004100081E00E94B80080E090E00E94EF00CE01F1
:100420008B509E4F0E947B0180E090E0C851DC4FD2
:100430000FB6F894DEBF0FBECDBFDF91CF91089508
:04044000F894FFCF5E
:00000001FF
