:100000000C9434000C9451000C9451000C94510049
:100010000C9451000C9451000C9451000C9451001C
:100020000C9451000C9451000C9451000C9451000C
:100030000C9451000C9451000C9451000C945100FC
:100040000C9451000C9451000C9451000C94DE015E
:100050000C9451000C9451000C9451000C945100DC
:100060000C9451000C94510011241FBECFEFD8E026
:10007000DEBFCDBF11E0A0E0B1E0E2E4F6E002C0F7
:1000800005900D92AE30B107D9F721E0AEE0B1E0B6
:1000900001C01D92A038B207E1F70E9439020C940A
:1000A0001F030C9400005A9A83E08A95F1F7000030
:1000B0005A980895CF93DF931F92CDB7DEB766238A
:1000C00011F05E9A01C05E985F983B9A3A9A399A0D
:1000D000389A409841984298439887FD409A86FD07
:1000E000419A85FD429A84FD439A89830E94530078
:1000F0004098419842984398898183FD409A82FDB7
:10010000419A81FD429A80FD439A0E945300439A8E
:10011000429A419A409A0F90DF91CF9108955E984C
:100120005F9A3B983A98399838985A9A83E08A951A
:10013000F1F70000339B02C080E101C080E03299FA
:10014000806231998064309980685A9893E09A95DA
:10015000F1F700005A9A93E09A95F1F7000033996D
:1001600081603299826031998460309988605A98B0
:1001700008950E948F0087FDFCCF8DE08A95F1F7EE
:1001800000000C948F00CF93C82F0E94B90060E04C
:100190008C2FCF910C945A00CF93C82F0E94B90096
:1001A00061E08C2FCF910C945A00611102C08058ED
:1001B00001C080540C94C3000E94B90090E00895DF
:1001C00081E00C94C30082E00C94C300CF93C82F4D
:1001D0000E94B900CA3049F4803410F080E001C0B8
:1001E00080E48058CF910C94C30061E08C2FCF91B4
:1001F0000C945A00CF93DF93EC018991882319F076
:100200000E94E600FACFDF91CF910895CF93DF935C
:10021000FC018491EF012196882321F00E94E600E1
:10022000FE01F7CFDF91CF910895CF93C82F569A53
:10023000579A529A3B9A3A9A399A389A8FE39CE99C
:100240000197F1F700C00000429A439A0E945300C0
:1002500083ED90E30197F1F700C000000E94530086
:1002600095ED9A95F1F700000E94530085ED8A956F
:10027000F1F7000043980E94530095ED9A95F1F72D
:10028000000088E20E94C30088E00E94C3000E9430
:10029000E00086E00E94C3008C2FCF910C94C30035
:1002A00090917F01E92FF0E0E55EFE4F80839F5F34
:1002B000943618F490937F01089510927F01089569
:1002C0001F93CF93DF93EC0110E0212F30E0FE016C
:1002D00001900020E9F73197EC1BFD0B2E173F072B
:1002E00040F4FE01E20FF31F80810E9450011F5F66
:1002F000ECCF8091C00085FD1092C600DF91CF91B8
:100300001F910895E0EBF0E0808180688083808118
:10031000806280838081826080838081816080832D
:10032000E1EBF0E080818860808380818160808360
:100330008FE48093B30087E28093B4000895E0E8EF
:10034000F0E080818068808380818062808380810A
:1003500082608083808181608083E1E8F0E0808139
:100360008860808380818260808384E690E09093BF
:100370008B0080938A000895E0E8F0E08081806837
:10038000808380818062808380818260808380819D
:1003900081608083E1E8F0E08081886080838081F3
:1003A0008360808384E690E090938B0080938A0042
:1003B0000895E1E8F0E08081108208951F920F9285
:1003C0000FB60F9211248F939F93EF93FF93909109
:1003D0000F0180910E01981769F0E0910E01EF5F17
:1003E000E770E0930E01F0E0E05FFE4F80818093C4
:1003F000C60005C08091C1008F7D8093C100FF9130
:10040000EF919F918F910F900FBE0F901F901895B5
:100410001092C5008093C40088E98093C1001092B7
:1004200018011092190110920E0110920F010895F7
:1004300090910F019F5F977020910E019217E1F349
:10044000E92FF0E0E05FFE4F808390930F018091F1
:10045000C10080628093C1000895CF93DF93EC01C7
:100460008991882319F00E941802FACFDF91CF9169
:1004700008958F929F92AF92BF92DF92EF92FF9278
:100480000F931F93CF93DF93CDB7DEB7CF5CD740E9
:100490000FB6F894DEBF0FBECDBF3D98209A539A99
:1004A000229A789480E40E9408020E9482018CE0E3
:1004B0000E94150180E091E00E94FA009E012F5FEA
:1004C0003F4F7901FE01E352FA4FD90180E391E3F6
:1004D000359B02C09C9301C08C9336EA3A95F1F7A4
:1004E00000C01196AE17BF0799F721E089818133CB
:1004F00009F020E0D70180E090E04D9131E04133F8
:1005000009F030E0231307C001968C3D05E0900709
:10051000A1F780E090E0D701A80FB91FDC904D0152
:1005200040E050E020E030E06CED75E0681B790BB6
:1005300084010E191F09061717073CF5D4011D91F8
:100540004D011D1103C04F5F5F4F1DC05A01B3E045
:10055000AB1AB10805E0A016B10460F0485051098B
:100560004430510590F4AF01420F531FDA01DC9281
:100570002F5F3F4FAF01420F531FDA01DC922F5F15
:100580003F4F41E050E0D12ED3CF408121E030E019
:10059000DF01A20FB31F5C91451307C0C9018E0193
:1005A000055C184F780162E317C02F5F3F4F253974
:1005B000310571F7F4CFAF01480F591FDA012C91C3
:1005C00011963C91213361F4303371F4D7012C93AF
:1005D0000296BFEFEB1AFB0A8539910564F307C059
:1005E000203311F4313391F3D7016C93F1CF7E01B5
:1005F000E0E3EE1AE8EFFE0AD8018D918D010E942A
:100600001802E7EAF1E63197F1F700C000000E1595
:100610001F0591F780E090E0C153D84F0FB6F894D2
:10062000DEBF0FBECDBFDF91CF911F910F91FF9025
:10063000EF90DF90BF90AF909F908F900895F894C7
:02064000FFCFEA
:0E0642005246494420546167204865726500A5
:00000001FF
