:100000000C9434000C9451000C9451000C94510049
:100010000C9451000C9451000C9451000C9451001C
:100020000C9451000C9451000C9451000C9451000C
:100030000C9451000C9451000C9451000C945100FC
:100040000C9451000C9451000C9451000C94B50187
:100050000C9451000C9451000C9451000C945100DC
:100060000C9451000C94510011241FBECFEFD8E026
:10007000DEBFCDBF11E0A0E0B1E0E8EBF8E002C0E8
:1000800005900D92AC30B107D9F721E0ACE0B1E0BA
:1000900001C01D92A831B207E1F70E9410020C9432
:1000A0005A040C9400005A9A83E08A95F1F70000F4
:1000B0005A980895CF93DF931F92CDB7DEB766238A
:1000C00011F05E9A01C05E985F983B9A3A9A399A0D
:1000D000389A409841984298439887FD409A86FD07
:1000E000419A85FD429A84FD439A89830E94530078
:1000F0004098419842984398898183FD409A82FDB7
:10010000419A81FD429A80FD439A0E945300439A8E
:10011000429A419A409A0F90DF91CF9108955E984C
:100120005F9A3B983A98399838985A9A83E08A951A
:10013000F1F70000339B02C080E101C080E03299FA
:10014000806231998064309980685A9893E09A95DA
:10015000F1F700005A9A93E09A95F1F7000033996D
:1001600081603299826031998460309988605A98B0
:1001700008950E948F0087FDFCCF8DE08A95F1F7EE
:1001800000000C948F00CF93C82F0E94B90060E04C
:100190008C2FCF910C945A00CF93C82F0E94B90096
:1001A00061E08C2FCF910C945A00611102C08058ED
:1001B00001C080540C94C3000E94B90090E00895DF
:1001C00081E00C94C30082E00C94C300CF93C82F4D
:1001D0000E94B900CA3049F4803410F080E001C0B8
:1001E00080E48058CF910C94C30061E08C2FCF91B4
:1001F0000C945A00CF93DF93EC018991882319F076
:100200000E94E600FACFDF91CF910895CF93DF935C
:10021000FC018491EF012196882321F00E94E600E1
:10022000FE01F7CFDF91CF910895CF93C82F569A53
:10023000579A529A3B9A3A9A399A389A8FE39CE99C
:100240000197F1F700C00000429A439A0E945300C0
:1002500083ED90E30197F1F700C000000E94530086
:1002600095ED9A95F1F700000E94530085ED8A956F
:10027000F1F7000043980E94530095ED9A95F1F72D
:10028000000088E20E94C30088E00E94C3000E9430
:10029000E00086E00E94C3008C2FCF910C94C30035
:1002A00085B115B885B115B80895289A0895299A89
:1002B0000895E0EBF0E08081806880838081806237
:1002C0008083808182608083808181608083E1EB94
:1002D000F0E08081886080838081816080838FE40A
:1002E0008093B30087E28093B4000895E0E8F0E0E3
:1002F0008081806880838081806280838081826049
:100300008083808181608083E1E8F0E08081886083
:10031000808380818260808384E690E090938B006C
:1003200080938A000895E0E8F0E08081806880830F
:10033000808180628083808182608083808181600F
:100340008083E1E8F0E08081886080838081836041
:10035000808384E690E090938B0080938A000895D8
:10036000E1E8F0E08081108208951F920F920FB6AD
:100370000F9211248F939F93EF93FF9390910D0110
:1003800080910C01981769F0E0910C01EF5FE77024
:10039000E0930C01F0E0E25FFE4F80818093C600A5
:1003A00005C08091C1008F7D8093C100FF91EF91C6
:1003B0009F918F910F900FBE0F901F9018951092E4
:1003C000C5008093C40088E98093C1001092160193
:1003D0001092170110920C0110920D010895909146
:1003E0000D019F5F977020910C019217E1F3E92FA7
:1003F000F0E0E25FFE4F808390930D018091C10099
:1004000080628093C1000895CF93DF93EC018991BE
:10041000882319F00E94EF01FACFDF91CF91089560
:10042000CF93DF93CDB7DEB7CE5DD7400FB6F8944C
:10043000DEBF0FBECDBF3D98209A219A539A229AD3
:10044000789480E40E94DF010E9459018CE00E94B0
:10045000150180E091E00E94FA002FE34DE063E097
:10046000215040406040E1F700C00000CE010196FD
:100470004C015E0193E2A91A9AEFB90A7E01A5EC3C
:10048000EA1AA8EFFA0AF7013496C352D84FF98353
:10049000E883CD5DD74011E3F701F696C552D84FFA
:1004A000F983E883CB5DD7401401D401359B02C0AA
:1004B0001C9302C0F0E3FC9326EA2A95F1F700C0F2
:1004C0001196AA15BB0591F781E09981913309F046
:1004D00080E0D40140E050E02D9191E0213309F01B
:1004E00090E0891308C04F5F5F4F4C3D65E05607B1
:1004F00099F740E050E0D401A40FB51FEC916D01D5
:1005000020E030E080E090E0ACEDB5E0A41BB50B5E
:10051000AD01B60168197909641775071CF5D60194
:100520000D916D010E1303C02F5F3F4F19C0B9012C
:10053000635071096530710558F028503109243035
:10054000310580F49501280F391FD901EC930196EC
:100550009501280F391FD901EC93019621E030E075
:10056000E02FD7CF2501D5013D91CD018A199B09F7
:100570002C913213F9CF6701D7019501280F391F4C
:10058000F90140812181403351F4203331F4D70106
:1005900020E030E080E090E00CC01C9303C02033EA
:1005A000B1F72C93029611968E35F1E09F072CF34C
:1005B000EECF4D91413331F44C91413319F42F5F1B
:1005C0003F4F02C020E030E001968339910529F0C9
:1005D0002830310571F7019602C080E090E0D70124
:1005E00021E030E02833310579F0AD01480F591F83
:1005F000FA014081413311F44C9302C0F0E3FC93C3
:100600002F5F3F4F1196EECFC352D84FA881B981CB
:10061000CD5DD74031E020E0CD010497FC01808121
:10062000813309F030E0832F922F9D01235031094F
:10063000F9012081213309F401969D0122503109ED
:10064000F9012081213309F401969D0121503109DE
:10065000F9012081213309F4019621E03C913133E5
:1006600009F020E080FD02C021111ECF8D7F01978F
:1006700019F4222309F418CF1596C552D84FE881F2
:10068000F981CB5DD740AE17BF0721F6F701828510
:100690008083838581838485828385858383878521
:1006A00084838089858381898683828987838489FD
:1006B0008087858981878689828787898387818DDD
:1006C0008487828D8587838D8687848D8787868DB5
:1006D000808B878D818B80A1828B81A1838B83A16D
:1006E000848B84A1858B85A1868B86A1878B80A531
:1006F000808F81A5818F82A5828F83A5838F85A519
:10070000848F86A5858F87A5868F80A9878F10A265
:10071000D701E0E0F0E0612C712C60E070E080E057
:1007200090E02D91222371F0213309F4E1602C91A6
:100730002223B9F39F01A30101E00E94F403F90110
:100740003A01EFCF9F01A301A0E00E940D0409F43C
:10075000ABCE8E010053184F2AE0A801BF01C301A0
:100760000E9419040E9476010E94570181E00E94B4
:10077000C30080E091E00E94FA00C8010E94FA00E4
:10078000FFE32DE043E0F15020404040E1F700C09E
:1007900000000E94B0010E9450016FEB76EC8DE2E8
:1007A000615070408040E1F700C0000080E3D1015B
:1007B0008D931D01AA15BB05D1F780E3F20181934A
:1007C0002F01EE15FF05D1F780E3D6018D936D0162
:1007D000A017B107D1F7FD01CD010A9620E32193BF
:1007E000E817F907E1F757CE0F93083090F0982FEC
:1007F000872F762F652F542F432F322F2227085013
:10080000F4CF220F331F441F551F661F771F881F09
:10081000991F0A95B2F70F9108950024A7FD00943F
:100820002A173005400550056005700580059005C4
:100830000895BB272A3051F4992342F4BDE29095E4
:100840008095709561957F4F8F4F9F4F0C94290431
:10085000BB27FA01A62F6217710581059105330B9D
:1008600030FB66F0AA27660F771F881F991FAA1F03
:10087000A21710F0A21B63953850A9F7A05DAA3308
:1008800008F0A95DA19336F7B111B1931082CA01A6
:100890000C944A04DC01FC01672F71917723E1F786
:1008A000329704C07C916D9370836291AE17BF073D
:0808B000C8F30895F894FFCF8E
:0C08B80052464944205461673A0A00008F
:00000001FF
