:100000000C9434000C9451000C9451000C94510049
:100010000C9451000C9451000C9451000C9451001C
:100020000C9451000C9451000C9451000C9451000C
:100030000C9451000C9451000C9451000C945100FC
:100040000C9451000C9451000C9451000C94E50157
:100050000C9451000C9451000C9451000C945100DC
:100060000C9451000C94510011241FBECFEFD8E026
:10007000DEBFCDBF11E0A0E0B1E0E6E1FBE002C0F1
:1000800005900D92AC30B107D9F721E0ACE0B1E0BA
:1000900001C01D92AE37B207E1F70E9440020C94F6
:1000A00089050C9400005A9A83E08A95F1F70000C4
:1000B0005A980895CF93DF931F92CDB7DEB766238A
:1000C00011F05E9A01C05E985F983B9A3A9A399A0D
:1000D000389A409841984298439887FD409A86FD07
:1000E000419A85FD429A84FD439A89830E94530078
:1000F0004098419842984398898183FD409A82FDB7
:10010000419A81FD429A80FD439A0E945300439A8E
:10011000429A419A409A0F90DF91CF9108955E984C
:100120005F9A3B983A98399838985A9A83E08A951A
:10013000F1F70000339B02C080E101C080E03299FA
:10014000806231998064309980685A9893E09A95DA
:10015000F1F700005A9A93E09A95F1F7000033996D
:1001600081603299826031998460309988605A98B0
:1001700008950E948F0087FDFCCF8DE08A95F1F7EE
:1001800000000C948F00CF93C82F0E94B90060E04C
:100190008C2FCF910C945A00CF93C82F0E94B90096
:1001A00061E08C2FCF910C945A00611102C08058ED
:1001B00001C080540C94C3000E94B90090E00895DF
:1001C00081E00C94C30082E00C94C300CF93C82F4D
:1001D0000E94B900CA3049F4803410F080E001C0B8
:1001E00080E48058CF910C94C30061E08C2FCF91B4
:1001F0000C945A00CF93DF93EC018991882319F076
:100200000E94E600FACFDF91CF910895CF93DF935C
:10021000FC018491EF012196882321F00E94E600E1
:10022000FE01F7CFDF91CF910895CF93C82F569A53
:10023000579A529A3B9A3A9A399A389A8FE39CE99C
:100240000197F1F700C00000429A439A0E945300C0
:1002500083ED90E30197F1F700C000000E94530086
:1002600095ED9A95F1F700000E94530085ED8A956F
:10027000F1F7000043980E94530095ED9A95F1F72D
:10028000000088E20E94C30088E00E94C3000E9430
:10029000E00086E00E94C3008C2FCF910C94C30035
:1002A00085B115B80895289A0895299A08959091CE
:1002B0007D01E92FF0E0E75EFE4F80839F5F94367B
:1002C00018F490937D01089510927D0108951F9375
:1002D000CF93DF93EC0110E0212F30E0FE0101907D
:1002E0000020E9F73197EC1BFD0B2E173F0740F478
:1002F000FE01E20FF31F80810E9457011F5FECCFC8
:100300008091C00085FD1092C600DF91CF911F91B2
:100310000895E0EBF0E080818068808380818062D6
:100320008083808182608083808181608083E1EB33
:10033000F0E08081886080838081816080838FE4A9
:100340008093B30087E28093B4000895E0E8F0E082
:1003500080818068808380818062808380818260E8
:100360008083808181608083E1E8F0E08081886023
:10037000808380818260808384E690E090938B000C
:1003800080938A000895E0E8F0E0808180688083AF
:1003900080818062808380818260808380818160AF
:1003A0008083E1E8F0E080818860808380818360E1
:1003B000808384E690E090938B0080938A00089578
:1003C000E1E8F0E08081108208951F920F920FB64D
:1003D0000F9211248F939F93EF93FF9390910D01B0
:1003E00080910C01981769F0E0910C01EF5FE770C4
:1003F000E0930C01F0E0E25FFE4F80818093C60045
:1004000005C08091C1008F7D8093C100FF91EF9165
:100410009F918F910F900FBE0F901F901895109283
:10042000C5008093C40088E98093C1001092160132
:100430001092170110920C0110920D0108959091E5
:100440000D019F5F977020910C019217E1F3E92F46
:10045000F0E0E25FFE4F808390930D018091C10038
:1004600080628093C1000895CF93DF93EC0189915E
:10047000882319F00E941F02FACFDF91CF910895CF
:10048000CF93DF93CDB7DEB7CB5DD7400FB6F894EF
:10049000DEBF0FBECDBF3D98209A219A539A229A73
:1004A000789480E40E940F020E9489018CE00E94EF
:1004B000150180E091E00E94FA002FE33DE063E047
:1004C000215030406040E1F700C00000CE010196AD
:1004D0006C017E0193E2E91A9AEFF90A2BE3822E6E
:1004E00027E0922E8C0E9D1EE4E08E0E911C80E380
:1004F000282E11E39CED692E95E0792EEBE3F7E0D1
:10050000EC0FFD1FF696C652D84FF983E883CA5DFB
:10051000D740D601359B02C01C9301C02C92F6EA4D
:10052000FA95F1F700C01196AE15BF0599F781E075
:100530009981913309F080E0D60140E050E02D919F
:1005400091E0213309F090E0891308C04F5F5F4FBD
:100550004C3D25E0520799F740E050E0D601A40F4A
:10056000B51FBC9020E030E080E090E0B301641B58
:10057000750BAB01BD016C197D09641775070CF58E
:10058000AD90AB1003C02F5F3F4F19C0B90163504E
:1005900071096530710558F0285031092430310552
:1005A00080F49701280F391FF901B0820196970155
:1005B000280F391FF901B082019621E030E0BA2CF2
:1005C000D9CFD7013D91CD018E199F092C913213BE
:1005D000F9CF9E01255C384F5901D9019701280FA9
:1005E000391FF90140812181403361F4203341F406
:1005F000DE01A55CB84F80E090E020E030E00CC068
:100600001C9303C02033A1F72C93029611968E35CC
:10061000F1E09F071CF3ECCF4D91413331F44C9145
:10062000413319F42F5F3F4F02C020E030E00196C4
:100630008339910529F02830310571F7019602C000
:1006400080E090E0DE01A55CB84F21E030E0283387
:10065000310571F0AD01480F591FFA014081413356
:1006600011F44C9301C02C922F5F3F4F1196EFCFA6
:10067000D40131E020E0CD010497FC018081813379
:1006800009F030E0832F922F9D0123503109F901A9
:100690002081213309F401969D0122503109F9018D
:1006A0002081213309F401969D0121503109F9017E
:1006B0002081213309F4019621E03C91313309F086
:1006C00020E080FD02C0211124CF8D7F019719F415
:1006D000222309F41ECF1596C652D84FE881F9811E
:1006E000CA5DD740AE17BF0721F6CB5BD84F8881D4
:1006F000C554D740C55CD84F8883CB53D740CA5B1D
:10070000D84F8881C654D740C45CD84F8883CC5317
:10071000D740C95BD84F8881C754D740C35CD84FF6
:100720008883CD53D740C85BD84F8881C854D74001
:10073000C25CD84F8883CE53D740C65BD84F8881E0
:10074000CA54D740C15CD84F8883CF53D740C55BCC
:10075000D84F8881CB54D740C05CD84F8883C054D1
:10076000D740C45BD84F8881CC54D740CF5BD84F9B
:100770008883C154D740C35BD84F8881CD54D740BC
:10078000CE5BD84F8883C254D740C15BD84F888195
:10079000CF54D740CD5BD84F8883C354D740C05B7C
:1007A000D84F8881C055D740CC5BD84F8883C4547C
:1007B000D740CF5AD84F8881C155D740CB5BD84F4F
:1007C0008883C554D740CE5AD84F8881C255D74068
:1007D000CA5BD84F8883C654D740CC5AD84F88813B
:1007E000C455D740C95BD84F8883C754D740CB5A2C
:1007F000D84F8881C555D740C85BD84F8883C85427
:10080000D740CA5AD84F8881C655D740C75BD84F02
:100810008883C954D740C95AD84F8881C755D74013
:10082000C65BD84F8883CA54D740C75AD84F8881EF
:10083000C955D740C55BD84F8883CB54D740C65ADB
:10084000D84F8881CA55D740C45BD84F8883CC54D1
:10085000D740C55AD84F8881CB55D740C35BD84FB6
:100860008883CD54D740C45AD84F8881CC55D740BF
:10087000C25BD84F8883CE54D740C25AD84F8881A4
:10088000CE55D740C15BD84F8883CF54D740C15A8B
:10089000D84F8881CF55D740C05BD84F8883C0558B
:1008A000D740C05AD84F8881C056D740CF5AD84F6A
:1008B0008883C155D740CF59D84F8881C156D7407A
:1008C000CE5AD84F8883C255D740CD59D84F88814A
:1008D000C356D740CD5AD84F8883C355D740CC593B
:1008E000D84F8881C456D740CC5AD84F8883C45536
:1008F000D740CB59D84F8881C556D740CB5AD84F0F
:100900008883C555D740CA59D84F8881C656D74025
:10091000CA5AD84F8883C655D740C859D84F8881FE
:10092000C856D740C95AD84F8883C755D740C759EA
:10093000D84F8881C956D740C85AD84F8883C855E0
:10094000D740C659D84F8881CA56D740C75AD84FC2
:100950008883C955D740C559D84F8881CB56D740D1
:10096000C65AD84F8883CA55D740C55AD84F18821F
:10097000CB55D740DE01A55CB84F00E0312C412CAF
:10098000512C60E070E080E090E02D91222381F016
:10099000213309F401602C912223B9F3202F332D48
:1009A000A20101E00E942305022F332E2A01EDCF80
:1009B000202F332DA201A0E00E943C0509F4A9CD0F
:1009C0002AE0AE014053584F602F732DC2010E94A0
:1009D000480581E00E94C3000E94A601CE01805319
:1009E000984F0E94FA00FFE32DE033E0F1502040E1
:1009F0003040E1F700C000000E94E0016FEB76ECB0
:100A00008DE2615070408040E1F700C0000080E05E
:100A10000E94C30081E00E94C30089E091E00E942F
:100A2000FA00CE018053984F0E94FA008BE397E0C2
:100A30008C0F9D1F819620E3F50121935F01E8173C
:100A4000F907D1F754CD0F93083090F0982F872FE6
:100A5000762F652F542F432F322F22270850F4CFA3
:100A6000220F331F441F551F661F771F881F991FB2
:100A70000A95B2F70F9108950024A7FD00942A1754
:100A80003005400550056005700580059005089506
:100A9000BB272A3051F4992342F4BDE2909580950A
:100AA000709561957F4F8F4F9F4F0C945805BB27D2
:100AB000FA01A62F6217710581059105330B30FBF2
:100AC00066F0AA27660F771F881F991FAA1FA21713
:100AD00010F0A21B63953850A9F7A05DAA3308F067
:100AE000A95DA19336F7B111B1931082CA010C949C
:100AF0007905DC01FC01672F71917723E1F73297CB
:100B000004C07C916D9370836291AE17BF07C8F3E8
:060B10000895F894FFCFE8
:0C0B16005246494420546167000A000068
:00000001FF
